:100000000C9462000C948A000C948A000C948A0070
:100010000C948A000C948A000C948A000C948A0038
:100020000C948A000C948A000C948A000C948A0028
:100030000C948A000C948A000C948A000C948A0018
:100040000C9441030C948A000C94B1030C948B0320
:100050000C948A000C948A000C948A000C948A00F8
:100060000C948A000C948A000000000024002700F1
:100070002A0000000000250028002B0000000000DE
:1000800023002600290004040404040404040202DA
:100090000202020203030303030301020408102007
:1000A0004080010204081020010204081020000012
:1000B0000008000201000003040700000000000027
:1000C00000002D0511241FBECFEFD8E0DEBFCDBF4D
:1000D00011E0A0E0B1E0E8E0FBE002C005900D9285
:1000E000AC3AB107D9F722E0ACEAB1E001C01D9209
:1000F000A435B207E1F710E0C2E6D0E004C02197D2
:10010000FE010E947C05C136D107C9F70E94E303B6
:100110000C9482050C940000833081F028F4813027
:1001200099F08230A9F008958730A9F08830C9F09D
:100130008430B1F4809180008F7D03C08091800075
:100140008F7780938000089584B58F7784BD08955C
:1001500084B58F7DFBCF8091B0008F778093B00006
:1001600008958091B0008F7DF9CFCF93DF93282F32
:1001700030E0F901E255FF4F8491F901E656FF4F57
:10018000D491F901EA57FF4FC491CC23A1F081111A
:100190000E948C00EC2FF0E0EE0FFF1FE458FF4FA1
:1001A000A591B491EC91ED2381E090E009F480E019
:1001B000DF91CF91089580E090E0FACF1F93CF9325
:1001C000DF93282F30E0F901E255FF4F8491F901C8
:1001D000E656FF4FD491F901EA57FF4FC491CC2363
:1001E000A9F0162F81110E948C00EC2FF0E0EE0F89
:1001F000FF1FEE58FF4FA591B4918FB7F894EC9183
:10020000111108C0D095DE23DC938FBFDF91CF9111
:100210001F910895DE2BF8CFCF93DF9390E0FC0180
:10022000E656FF4F24918A579F4FFC018491882303
:10023000D1F090E0880F991FFC01E859FF4FA5917C
:10024000B491FC01EE58FF4FC591D491623071F426
:100250009FB7F8943C91822F809583238C93E881FB
:100260002E2B28839FBFDF91CF9108958FB7F894ED
:10027000EC912E2B2C938FBFF6CF3FB7F894809143
:10028000B3019091B401A091B501B091B60126B52A
:10029000A89B05C02F3F19F00196A11DB11D3FBFBE
:1002A000BA2FA92F982F8827BC01CD01620F711D8D
:1002B000811D911D42E0660F771F881F991F4A9587
:1002C000D1F708958F929F92AF92BF92CF92DF9213
:1002D000EF92FF924B015C010E943D016B017C019A
:1002E0000E943D016C197D098E099F09683E73408B
:1002F00081059105A8F321E0821A9108A108B108AF
:1003000088EEC80E83E0D81EE11CF11C8114910414
:10031000A104B10429F7FF90EF90DF90CF90BF9038
:10032000AF909F908F900895AF92BF92CF92DF923F
:10033000EF92FF920F931F93CF93DF936C017B019A
:100340008B01040F151FEB015E01AE18BF08C0172B
:10035000D10759F06991D601ED91FC910190F0819E
:10036000E02DC6010995892B79F7C501DF91CF9161
:100370001F910F91FF90EF90DF90CF90BF90AF90C3
:100380000895FC01538D448D252F30E0842F90E09B
:10039000821B930B541710F0CF9608950197089580
:1003A000FC01918D828D981761F0A28DAE0FBF2F49
:1003B000B11D5D968C91928D9F5F9F73928F90E09F
:1003C00008958FEF9FEF0895FC01918D828D98170E
:1003D00031F0828DE80FF11D858D90E008958FEF4B
:1003E0009FEF0895FC01918D228D892F90E0805C14
:1003F0009F4F821B91098F739927089587EB91E096
:100400000E94F20121E0892B09F420E0822F089557
:1004100080E090E0892B29F00E94FE0181110C946C
:1004200000000895FC01A48DA80FB92FB11DA35A97
:10043000BF4F2C91848D90E001968F739927848F04
:10044000A689B7892C93A089B1898C918370806427
:100450008C93938D848D981306C00288F389E02DC8
:1004600080818F7D80830895EF92FF920F931F9379
:10047000CF93DF93EC0181E0888F9B8D8C8D981357
:100480001AC0E889F989808185FF15C09FB7F89463
:10049000EE89FF896083E889F989808183708064AF
:1004A00080839FBF81E090E0DF91CF911F910F91FA
:1004B000FF90EF900895F62E0B8D10E00F5F1F4F09
:1004C0000F731127E02E8C8D8E110CC00FB607FC18
:1004D000FACFE889F989808185FFF5CFCE010E94A6
:1004E0001202F1CFEB8DEC0FFD2FF11DE35AFF4F00
:1004F000F0829FB7F8940B8FEA89FB898081806234
:10050000CFCFCF93DF93EC01888D8823B9F0AA89F0
:10051000BB89E889F9898C9185FD03C0808186FDBE
:100520000DC00FB607FCF7CF8C9185FFF2CF80810D
:1005300085FFEDCFCE010E941202E9CFDF91CF916E
:100540000895FC0101900020E9F73197AF01481BA5
:10055000590BBC0187EB91E00C949401CF93DF938E
:100560000E94A102EC0182E191E00E94A1028C0FA5
:100570009D1FDF91CF9108958F929F92AF92BF926E
:10058000CF92DF92EF92FF920F931F93CF93DF935F
:10059000CDB7DEB7A1970FB6F894DEBF0FBECDBFC3
:1005A0006C01990FEE08FF08F7FE47C06DE287EB7C
:1005B00091E00E9434028C0122273327A9012C19D3
:1005C0003D094E095F0919A2CE0181967C019AE08E
:1005D000892E912CA12CB12CCA01B901A50194013D
:1005E0000E945A05605DF70162937F012115310574
:1005F0004105510589F790E080E0309719F0CF016F
:100600000E94A102080F191F82E191E00E94A1023D
:10061000800F911FA1960FB6F894DEBF0FBECDBF1D
:10062000DF91CF911F910F91FF90EF90DF90CF90CE
:10063000BF90AF909F908F900895A701960119A247
:100640008E010F5D1F4F8AE0C82ED12CE12CF12CBA
:10065000CA01B901A70196010E945A05605DF8011F
:1006600062938F01211531054105510589F73097B6
:1006700029F0CF010E94A1028C01C6CF10E000E05A
:10068000C3CF1F920F920FB60F9211242F933F9357
:100690008F939F93AF93BF938091AF019091B001DF
:1006A000A091B101B091B2013091AE0123E0230FCE
:1006B0002D3758F50196A11DB11D2093AE018093F1
:1006C000AF019093B001A093B101B093B2018091BA
:1006D000B3019091B401A091B501B091B60101961A
:1006E000A11DB11D8093B3019093B401A093B501F6
:1006F000B093B601BF91AF919F918F913F912F9190
:100700000F900FBE0F901F90189526E8230F0296AA
:10071000A11DB11DD2CF1F920F920FB60F921124BF
:100720002F933F934F935F936F937F938F939F93F9
:10073000AF93BF93EF93FF9387EB91E00E94120278
:10074000FF91EF91BF91AF919F918F917F916F91A9
:100750005F914F913F912F910F900FBE0F901F907F
:1007600018951F920F920FB60F9211242F938F930B
:100770009F93EF93FF93E091C701F091C8018081AF
:10078000E091CD01F091CE0182FD1BC0908180915E
:10079000D0018F5F8F732091D101821741F0E091DA
:1007A000D001F0E0E954FE4F958F8093D001FF9186
:1007B000EF919F918F912F910F900FBE0F901F90EF
:1007C00018958081F4CF789484B5826084BD84B517
:1007D000816084BD85B5826085BD85B5816085BD3C
:1007E00080916E00816080936E00109281008091F4
:1007F000810082608093810080918100816080937C
:100800008100809180008160809380008091B100A0
:1008100084608093B1008091B00081608093B000CB
:1008200080917A00846080937A0080917A0082605F
:1008300080937A0080917A00816080937A00809121
:100840007A00806880937A001092C10061E082E0B3
:100850000E940C0161E083E00E940C0161E084E0F1
:100860000E940C0162E088E00E940C01E091C70147
:10087000F091C80182E08083E091C301F091C4014E
:100880001082E091C501F091C6018FEC8083109237
:10089000CF01E091CB01F091CC0186E08083E09123
:1008A000C901F091CA01808180618083E091C90112
:1008B000F091CA01808188608083E091C901F09144
:1008C000CA01808180688083E091C901F091CA01EA
:1008D00080818F7D808385E191E00E94AE0280E47B
:1008E000F82E00E010E0F0927C0080917A008064A5
:1008F00080937A0080917A0086FDFCCFC0917800C9
:10090000D091790081E391E00E94A102CE010E9482
:10091000BC02C13981E0D8070CF448C061E082E034
:100920000E94DE00C93582E0D807BCF061E082E0B9
:100930000E94DE0061E083E00E94DE00C132D3400D
:1009400064F061E082E00E94DE0061E083E00E94EA
:10095000DE0061E084E00E94DE0088E00E94B500D5
:10096000892B21F489E391E00E94AE0288E00E9485
:10097000B5002091AC013091AD01892B21F52F5F9D
:100980003F4F3093AD012093AC0182E691E00E948D
:10099000A1028091AC019091AD010E94BC026AEF6E
:1009A00070E080E090E00E946201E0CFC039D14069
:1009B000A4F660E082E00E94DE0060E083E00E9436
:1009C000DE0060E0C7CFC9010197039710F561E031
:1009D00083E00E94DE0086E691E00E94AE0268EEAF
:1009E00073E080E090E00E94620160E083E00E949A
:1009F000DE001092AD011092AC010115110509F451
:100A000072CF0E94FE01882309F46DCF0E9400007E
:100A10006ACF243031056CF361E082E00E94DE0091
:100A200061E083E00E94DE0061E084E00E94DE007D
:100A300084E891E00E94AE0268EE73E080E090E00E
:100A40000E94620160E082E00E94DE0060E083E0DC
:100A50000E94DE0060E084E0CACFE7EBF1E01382A1
:100A6000128288EE93E0A0E0B0E084839583A683B1
:100A7000B78384E091E09183808385EC90E0958753
:100A8000848784EC90E09787868780EC90E0918B58
:100A9000808B81EC90E0938B828B82EC90E0958B45
:100AA000848B86EC90E0978B868B118E128E138E42
:100AB000148E0895A1E21A2EAA1BBB1BFD010DC0C6
:100AC000AA1FBB1FEE1FFF1FA217B307E407F507FE
:100AD00020F0A21BB30BE40BF50B661F771F881FDA
:100AE000991F1A9469F760957095809590959B0170
:100AF000AC01BD01CF010895EE0FFF1F0590F491E9
:080B0000E02D0994F894FFCFE9
:100B08000000000034029401C1018102F201D00109
:100B1800E4010D0A00696E697469616C6973617436
:100B2800696F6E2064752070726F6772616D6D6594
:100B3800006D65737572653A004E423A6170707562
:100B48006979657A206A7573717527612034207018
:100B58006F757220756E206170756973206C6F6E89
:100B680067006E203D006C616D7065203220616CFD
:100B78006C756D6167652070656E64616E74203197
:100B880073656300616C6C756D61676520746F7562
:100B98007465206C6573206C616D70657320706579
:0C0BA8006E64616E7420317365630000A0
:00000001FF
