:100000000C9462000C948A000C948A000C948A0070
:100010000C948A000C948A000C948A000C948A0038
:100020000C948A000C948A000C948A000C948A0028
:100030000C948A000C948A000C948A000C948A0018
:100040000C94A1070C948A000C9411080C94EB07F3
:100050000C948A000C948A000C948A000C948A00F8
:100060000C9443080C948A00000000002300260032
:10007000290000000000240027002A0000000000E2
:10008000250028002B0004040404040404040202D4
:100090000202020203030303030301020408102007
:1000A0004080010204081020010204081020000012
:1000B0000008000201000003040700000000000027
:1000C0000000A70911241FBECFEFD8E0DEBFCDBFCF
:1000D00011E0A0E0B1E0E4E5FDE102C005900D9281
:1000E000A03AB107D9F723E0A0EAB1E001C01D9220
:1000F000A632B207E1F710E0C2E6D0E004C02197D3
:10010000FE010E948E0EC136D107C9F70E94000A77
:100110000C94A80E0C94000090E0FC01E255FF4FF7
:100120002491FC01E656FF4F3491FC01EA57FF4F42
:10013000E491EE23C9F0222339F0233001F1A8F431
:10014000213019F1223029F1F0E0EE0FFF1FE458C1
:10015000FF4FA591B4918FB7F894EC91611126C02F
:1001600030953E233C938FBF08952730A9F0283067
:10017000C9F0243049F7809180008F7D03C08091C1
:1001800080008F7780938000DFCF84B58F7784BD28
:10019000DBCF84B58F7DFBCF8091B0008F778093CC
:1001A000B000D2CF8091B0008F7DF9CF3E2BDACF57
:1001B000CF93DF9390E0FC01E656FF4F24918A57DE
:1001C0009F4FFC0184918823D1F090E0880F991F04
:1001D000FC01EE58FF4FA591B491FC01E458FF4F8C
:1001E000C591D49161110EC09FB7F8948C91E22F04
:1001F000E0958E238C932881E223E8839FBFDF91D3
:10020000CF9108958FB7F894EC91E22BEC938FBFC8
:10021000F6CF3FB7F8948091100290911102A0910F
:100220001202B091130226B5A89B05C02F3F19F00A
:100230000196A11DB11D3FBFBA2FA92F982F882766
:10024000BC01CD01620F711D811D911D42E0660F41
:10025000771F881F991F4A95D1F708958F929F9213
:10026000AF92BF92CF92DF92EF92FF924B015C016F
:100270000E9409016B017C010E9409016C197D0932
:100280008E099F09683E734081059105A8F321E01E
:10029000821A9108A108B10888EEC80E83E0D81E22
:1002A000E11CF11C81149104A104B10429F7FF9011
:1002B000EF90DF90CF90BF90AF909F908F90089578
:1002C000AF92BF92CF92DF92EF92FF920F931F9364
:1002D000CF93DF936C017B018B01040F151FEB01A2
:1002E0005E01AE18BF08C017D10759F06991D60159
:1002F000ED91FC910190F081E02DC6010995892BCB
:1003000079F7C501DF91CF911F910F91FF90EF9089
:10031000DF90CF90BF90AF900895FC01538D448D36
:10032000252F30E0842F90E0821B930B541710F0A0
:10033000CF96089501970895FC01918D828D9817AD
:1003400061F0A28DAE0FBF2FB11D5D968C91928D85
:100350009F5F9F73928F90E008958FEF9FEF0895B6
:10036000FC01918D828D981731F0828DE80FF11D7F
:10037000858D90E008958FEF9FEF0895FC01918D9A
:10038000228D892F90E0805C9F4F821B91098F7393
:100390009927089584E692E00E94BE0121E0892B0E
:1003A00009F420E0822F089580E090E0892B29F065
:1003B0000E94CA0181110C9400000895FC01A48DD3
:1003C000A80FB92FB11DA35ABF4F2C91848D90E077
:1003D00001968F739927848FA689B7892C93A0895A
:1003E000B1898C91837080648C93938D848D9813E4
:1003F00006C00288F389E02D80818F7D8083089577
:10040000EF92FF920F931F93CF93DF93EC0181E064
:10041000888F9B8D8C8D98131AC0E889F98980810B
:1004200085FF15C09FB7F894EE89FF896083E8893E
:10043000F98980818370806480839FBF81E090E030
:10044000DF91CF911F910F91FF90EF900895F62EBD
:100450000B8D10E00F5F1F4F0F731127E02E8C8D57
:100460008E110CC00FB607FCFACFE889F98980819C
:1004700085FFF5CFCE010E94DE01F1CFEB8DEC0FB1
:10048000FD2FF11DE35AFF4FF0829FB7F8940B8FB9
:10049000EA89FB8980818062CFCFCF93DF93EC0123
:1004A000888D8823B9F0AA89BB89E889F9898C915C
:1004B00085FD03C0808186FD0DC00FB607FCF7CF18
:1004C0008C9185FFF2CF808185FFEDCFCE010E9418
:1004D000DE01E9CFDF91CF91089521E001C0220F25
:1004E0006A95EAF7DC011C962C931C971A965C938C
:1004F0004E931997ED91FC910484F585E02D60E011
:10050000099408950895DC01ED91FC910684F78526
:10051000E02D41E0099581E090E00895DC01ED9146
:10052000FC910684F785E02D40E00994CF93DF939A
:10053000CDB7DEB728970FB6F894DEBF0FBECDBF9C
:1005400040910001509101016091020170910301FD
:100550004D835E836F83788740910401509105013C
:10056000609106017091070149835A836B837C83F4
:1005700020911403821710F08FEF820F90E03091DA
:1005800015038C0F9D1FFC01303181F4243071F470
:10059000618160688DE093E028960FB6F894DEBF25
:1005A0000FBECDBFDF91CF910C948E026581F1CF4C
:1005B0000F931F93CF93DF93EC01423018F08C819F
:1005C00088608C834F836887222329F0413019F497
:1005D0008C8184608C8364E670E080E090E00E940F
:1005E0002E016C8164FD5CC0E881F9810684F78589
:1005F000E02D42E063E0CE0109958BE496E401979B
:10060000F1F7E881F9810684F785E02D42E063E0A7
:10061000CE01099503E512E0C8010197F1F7E881E1
:10062000F9810684F785E02D42E063E0CE0109956B
:10063000C8010197F1F7E881F9810684F785E02D7B
:1006400042E062E0CE010995C8010197F1F76C81A3
:100650006062CE010E948E028BEE90E00197F1F76E
:1006600084E08D836CE0CE010E948E0261E0CE01B9
:100670000E948E028BE39FE10197F1F782E08E8367
:1006800066E0CE010E948E02E881F9810484F5853E
:10069000E02D6FEFCE01DF91CF911F910F91099463
:1006A0006062CE010E948E028BE496E40197F1F71E
:1006B0006C816062CE010E948E0203E512E0C801E7
:1006C0000197F1F76C816062CE010E948E02BCCF6F
:1006D0000895089508952091E101260F3327331FCF
:1006E00021323105ECF420913A02FC0190E080E0E7
:1006F000243069F082E00895A091E1012191AC01DC
:100700004F535E4FA40FB52FB11D2C930196861742
:1007100098F38091E101680F6093E10180E0089512
:1007200081E0089510923A0281E08093390210929C
:10073000140261E082E10E948C0061E083E10E948A
:100740008C00E9EBF0E080818E7F808380818D7F5B
:10075000808388E48093B80085E48093BC0008958A
:10076000CF93DF9391E09093C0018823B9F0C091BB
:10077000B800D091BA008091BC008A7B8093BC0005
:1007800060E082E10E948C0060E083E10E948C00C6
:100790000E949203D093BA00C093B800DF91CF912A
:1007A0000895CF92DF92EF92FF920F931F93CF9312
:1007B000DF93D091630281E0D13208F09CC0C091F8
:1007C00062020E9409016B017C0180913A02811151
:1007D0006CC082E080933A0281E0809339028FEF0F
:1007E0008093380210923702D0933602A2E4B2E02E
:1007F000E6E1F2E080E0D8138DC0109215028091FE
:100800001502CC0FC82BC0931502809114028130C1
:1008100009F084C0109214020E9409016B017C014E
:10082000809115028093BB0080913C0290913D0223
:10083000A0913E02B0913F02892B8A2B8B2BA1F015
:100840000E94090100913C0210913D0220913E025C
:1008500030913F026C197D098E099F090617170711
:100860002807390708F442C08091BC0083FDD8CF27
:1008700085EC8093BC000E9409016B017C01809192
:100880003A02823009F44CC0809138028F3F09F45B
:1008900069C080913802803209F466C080913802C4
:1008A000803309F463C084E026C080913C029091BB
:1008B0003D02A0913E02B0913F02892B8A2B8B2BE7
:1008C00009F483CF0E94090100913C0210913D027E
:1008D00020913E0230913F026C197D098E099F09DB
:1008E000061717072807390708F06FCF80913B02DA
:1008F0000E94B00385E010924102109263021092B0
:100900004002DF91CF911F910F91FF90EF90DF9008
:10091000CF9008959D9191938F5F6DCF85EEA9CF74
:1009200080913C0290913D02A0913E02B0913F0225
:10093000892B8A2B8B2B09F4A2CF0E9409010091ED
:100940003C0210913D0220913E0230913F026C1911
:100950007D098E099F09061717072807390708F030
:100960008ECFC4CF80E0C7CF82E0C5CF83E0C3CFB6
:100970000895E091090280910802E81730F4F0E050
:10098000E056FE4F808190E008958FEF9FEF08952D
:1009900090910902809108022FEF3FEF981748F4D9
:1009A000E92FF0E0E056FE4F208130E09F5F90930A
:1009B0000902C90108958091080290910902891BDA
:1009C000990B0895CF92DF92EF92FF920F931F93AE
:1009D000CF93DF937C01CB018A0120914002222337
:1009E00089F0EB016B01C40ED51ECC15DD0569F055
:1009F0006991D701ED91FC910190F081E02DC70143
:100A00000995F3CF642F0E946B03C801DF91CF914A
:100A10001F910F91FF90EF90DF90CF900895CF93AB
:100A2000DF931F92CDB7DEB7698320914002222366
:100A3000F9F020916302203258F021E030E0FC010F
:100A40003383228390E080E00F90DF91CF9108956F
:100A500080914102E82FF0E0EE5BFD4F9981908399
:100A60008F5F809341028093630281E090E0ECCF3E
:100A700061E0CE0101960E946B03F7CFFC01238158
:100A80002223F1F0262F61816095622360838281A9
:100A900091E0909340028093620210924102109282
:100AA000630281E093E00E940F050E94D103282F8A
:100AB00030E081E090E0232B11F090E080E0089599
:100AC00030E020E0F6CFEF92FF920F931F93CF9389
:100AD0008C01FC0184E0C0E0262F30E060FF02C002
:100AE0009589C92BB901759567958150319681110A
:100AF000F3CF413011F4F8014489F8016585C62B24
:100B0000C42B7801FEE0EF0EF11CF80162896C2B1A
:100B1000C7010E943E05F801628960956C23C701F8
:100B2000CF911F910F91FF90EF900C943E050F9382
:100B30001F93CF93DF93062F0F70423041F440E0B4
:100B4000602FDF91CF911F910F910C946305142FAB
:100B5000EC0170E084E0759567958A95E1F7CE0128
:100B60000E946305412F602FCE01EBCFFC018485ED
:100B70008823A1F0218532852115310521F46111E9
:100B800007C0158606C021303105D9F76111F9CFAC
:100B900085876585CF010E960C943E050895EF92EA
:100BA000FF920F931F93CF93DF93EC01062FF42E48
:100BB000E22E8B85888B1092090210920802109207
:100BC0004102109263020E94920381E892E09093A6
:100BD00007028093060282E892E0909305028093D8
:100BE0000402888911E010934002809362020E94FF
:100BF000D10381111CC0198B81E093E00E94C804CD
:100C00008E878989882339F01F861C8260E0CE0197
:100C10000E960E943E052E2D4F2D602FCE01DF91A6
:100C2000CF911F910F91FF90EF900C94D802198AE9
:100C3000E8CF90E080E008950E94A30EFB010190B0
:100C40000020E9F73197AF01461B570BDC01ED910E
:100C5000FC910280F381E02D09948F929F92AF92D4
:100C6000BF92EF92FF920F931F93CF93DF93CDB775
:100C7000DEB7A1970FB6F894DEBF0FBECDBF7C01E3
:100C8000FA01CB0119A2223008F42AE08E010F5D8F
:100C90001F4F822E912CB12CA12CBF01A5019401D4
:100CA0000E94610EF901CA016A300CF5605DD8013D
:100CB0006E938D01232B242B252B79F790E080E078
:100CC000109721F0BD01C7010E941E06A1960FB624
:100CD000F894DEBF0FBECDBFDF91CF911F910F9172
:100CE000FF90EF90BF90AF909F908F900895695CB8
:100CF000DECF0C941E062F923F924F925F926F921E
:100D00007F928F929F92AF92BF92CF92DF92EF929B
:100D1000FF921F93CF93DF93EC016A017B01722E48
:100D2000AB019601CB01B6010E945C0E60E471E05C
:100D3000811126C046015701E894B7F82FEF3FEF25
:100D40004FE75FE7C501B4010E945C0E81110CC042
:100D50002FEF3FEF4FE75FE7C501B4010E948B0C17
:100D600064E471E0181664F02FEF3FEF4FE75FE4A3
:100D7000C701B6010E94EA0D1816B4F468E471E0E8
:100D8000CE01DF91CF911F91FF90EF90DF90CF9038
:100D9000BF90AF909F908F907F906F905F904F909B
:100DA0003F902F900C941E062FEF3FEF4FE75FEC24
:100DB000C701B6010E948B0C87FDE0CF20E030E038
:100DC000A901C701B6010E948B0C312C212C87FF91
:100DD0000DC0E881F9810190F081E02D6DE2CE0136
:100DE00009951C01F7FAF094F7F8F09410E060E030
:100DF00070E080E09FE3711641F020E030E040E2D7
:100E000051E40E94900C1F5FF6CFA70196010E944B
:100E10001F0C2B013C010E94090D4B015C012AE0D3
:100E2000BC01A401CE010E942D067C01E20CF31C42
:100E30001123E1F1C501B4010E94380D9B01AC0101
:100E4000C301B2010E941E0C4B015C01E881F981D3
:100E50000190F081E02D6EE2CE010995E80EF91EB9
:100E6000115020F120E030E040E251E4C501B4012E
:100E70000E94EF0D2B013C010E94090D4B01B12C8A
:100E8000A12C2AE0B501A401CE010E942D06E80E96
:100E9000F91EC501B4010E94380D9B01AC01C301CC
:100EA000B2010E941E0C4B015C01DACFC701DF9139
:100EB000CF911F91FF90EF90DF90CF90BF90AF90B8
:100EC0009F908F907F906F905F904F903F902F906A
:100ED000089585ED8093BC0080913C0290913D0285
:100EE000A0913E02B0913F020796A11DB11D23E0E3
:100EF000B695A795979587952A95D1F72091BC002F
:100F000024FD03C010923A02089540913C02509192
:100F10003D0260913E0270913F02452B462B472BCC
:100F200069F30097A105B10541F02AE22A95F1F78E
:100F300000C00197A109B109E1CF80913B020C9457
:100F4000B0031F920F920FB60F9211242F933F936D
:100F50008F939F93AF93BF9380910C0290910D025A
:100F6000A0910E02B0910F0230910B0223E0230FEB
:100F70002D3758F50196A11DB11D20930B028093CA
:100F80000C0290930D02A0930E02B0930F02809179
:100F9000100290911102A0911202B09113020196D9
:100FA000A11DB11D8093100290931102A093120213
:100FB000B0931302BF91AF919F918F913F912F9169
:100FC0000F900FBE0F901F90189526E8230F0296E2
:100FD000A11DB11DD2CF1F920F920FB60F921124F7
:100FE0002F933F934F935F936F937F938F939F9331
:100FF000AF93BF93EF93FF9384E692E00E94DE01EC
:10100000FF91EF91BF91AF919F918F917F916F91E0
:101010005F914F913F912F910F900FBE0F901F90B6
:1010200018951F920F920FB60F9211242F938F9342
:101030009F93EF93FF93E0917402F091750280818A
:10104000E0917A02F0917B0282FD1BC09081809139
:101050007D028F5F8F7320917E02821741F0E091B5
:101060007D02F0E0EC59FD4F958F80937D02FF915A
:10107000EF919F918F912F910F900FBE0F901F9026
:1010800018958081F4CF1F920F920FB60F92112402
:101090002F933F934F935F936F937F938F939F9380
:1010A000AF93BF93EF93FF938091B900887F803611
:1010B00009F44AC0F0F5883209F4A7C018F5803168
:1010C00009F49BC0B8F4882309F4F9C0883009F406
:1010D00094C0FF91EF91BF91AF919F918F917F91BC
:1010E0006F915F914F913F912F910F900FBE0F9095
:1010F0001F901895883109F488C0803251F7809389
:10110000380214C0803409F49DC040F48033B9F330
:101110008833F9F68093380285ECB0C0803509F445
:1011200085C0883509F496C0883499F60E9469070D
:10113000D0CF883909F48CC038F5883729F050F4BD
:10114000883611F0803729F683E080933A021092B6
:10115000030257C0883809F47BC0803919F0803801
:1011600009F0B7CF80910302803208F071C0E0919E
:10117000030281E08E0F809303028091BB00F0E0B8
:10118000ED51FE4F80833DC0803B39F0E0F4803A62
:1011900009F479C0883A09F09CCF84E080933A0240
:1011A0001092E2011092E101E0910602F091070233
:1011B00009958091E10181110FC081E08093E101E7
:1011C0001092C10109C0803C09F4A6CF883C09F403
:1011D000A3CF883B09F07DCFE091E20181E08E0F43
:1011E0008093E201F0E0EF53FE4F80818093BB00DB
:1011F0009091E2018091E10129C0809115028093D4
:10120000BB0085EC8093BC0064CF90913702809145
:101210003602981758F5E091370281E08E0F8093DF
:101220003702F0E0EA5EFD4F8081E9CFE0913702BE
:1012300081E08E0F809337028091BB00F0E0EA5E80
:10124000FD4F808390913702809136029817C8F243
:1012500085E8D8CFE091370281E08E0F8093370286
:101260008091BB00F0E0EA5EFD4F808380913902FF
:1012700081115CCF81E08093140284EA8093BC00EA
:1012800010923A0226CF85EC8093BC0010923A026D
:1012900080910302803230F4E0910302F0E0ED51DE
:1012A000FE4F10826091030270E0E0910402F09121
:1012B000050283EE91E00995109203020ACF109285
:1012C000380234CFCF92DF92EF92FF920F931F93A9
:1012D000E82FF92F05C0015011092109310961F1E9
:1012E000908196239417B9F305C001501109210983
:1012F000310911F1908196239413F7CFC12CD12C91
:10130000E12CF12C0AC08FEFC81AD80AE80AF80AB3
:101310000C151D052E053F0579F080818623841765
:1013200091F36C2D7D2D8E2D9F2D1F910F91FF9090
:10133000EF90DF90CF90089560E070E080E090E063
:101340001F910F91FF90EF90DF90CF900895E4E60A
:10135000F2E01382128288EE93E0A0E0B0E0848392
:101360009583A683B7832CE031E03183208325EC7D
:1013700030E03587248724EC30E03787268720EC5F
:1013800030E0318B208B21EC30E0338B228B22EC50
:1013900030E0358B248B26EC30E0378B268B118E9A
:1013A000128E138E148EE1E0F3E013821282848396
:1013B0009583A683B7838EE191E091838083EDE0EE
:1013C000F3E01382128280E391E091838083108A9C
:1013D0008FEF87871686118A80E2838714861586A9
:1013E0001286118694E0928B92E0938B91E0948B1D
:1013F00090E1958B868B80E4878B80E8808F0895C1
:10140000789484B5826084BD84B5816084BD85B5DF
:10141000826085BD85B5816085BD80916E008160EB
:1014200080936E0010928100809181008260809391
:101430008100809181008160809381008091800093
:101440008160809380008091B10084608093B100BE
:101450008091B00081608093B00080917A008460B8
:1014600080937A0080917A00826080937A008091E4
:101470007A00816080937A0080917A0080688093FE
:101480007A001092C100E0917402F091750282E03E
:101490008083E0917002F09171021082E0917202FB
:1014A000F09173028FEC808310927C02E0917802BD
:1014B000F091790286E08083E0917602F0917702E4
:1014C000808180618083E0917602F0917702808153
:1014D00088608083E0917602F09177028081806855
:1014E0008083E0917602F091770280818F7D808306
:1014F00061E08DE00E94D80061E085E00E94D800A4
:1015000061E084E00E94D80060E083E00E94D8009F
:1015100020E044E064E18DE093E00E94CF0550E0DC
:1015200040E063E08DE093E00E946D0261E08DE0B9
:1015300093E00E94B60562E08DE093E00E948E0287
:101540008BE39FE10197F1F76CE471E08DE093E0AC
:101550000E94790643E0E42EF12C53E2C52ED12CF3
:101560006DE9262E60E0362E60E084E00E948C005B
:10157000C7010197F1F761E084E00E948C00C60189
:101580000197F1F760E084E00E948C00F101649122
:10159000E9E8F0E08491E82FF0E0EE0FFF1FE85952
:1015A000FF4F8591949100E412E42FE030E0462F44
:1015B0000E946209611571058105910529F06F5F2F
:1015C0007F4F8F4F9F4F9F70F3E4F0937C002091EB
:1015D0007A00206420937A0020917A0026FDFCCFC7
:1015E000C0917800D091790095958795779567950A
:1015F0000E943A0D2DEC3CEC48EE51E40E94900C18
:101600000E94020D2B013C01BE01DD0F880B990BDE
:101610000E943A0D20E030E040EA50E40E94EF0DD5
:1016200020E030EC4FE754E40E94900C20E030E0E2
:101630004AE754E40E94EF0D20E030E040E251E43C
:101640000E94900C4B015C0181E00E94960262E6D0
:1016500071E08DE093E00E94790622E0B501A401DB
:101660008DE093E00E947B0669E671E08DE093E0F7
:101670000E94790620E030E040EA52E4C501B4015E
:101680000E94EA0D181674F461E085E00E948C0057
:1016900068EE73E080E090E00E942E0160E085E05B
:1016A0000E948C00C301B2010E943A0D20E030E09C
:1016B0004AE753E40E94EA0D87FFABC0A4E6B0E01E
:1016C000A30192010E94830E0E943A0D20E030E0B7
:1016D0004AE753E40E94900C2B013C0182E00E94F7
:1016E00096026CE671E08DE093E00E94790622E0BC
:1016F000B301A2018DE093E00E947B0664E771E0F4
:101700008DE093E00E94790667E771E084E692E05D
:101710000E94790622E0B301A20184E692E00E94D1
:101720007B0664E771E084E692E00E941E0660E8B2
:1017300071E084E692E00E941E0620E030E048E47A
:1017400052E4C301B2010E948B0C87FD04C080915A
:101750000A02811165C061E08DE00E948C0020E0EA
:1017600030E044EC52E4C301B2010E948B0C87FFCD
:1017700043C020E030E040E85FE3C301B2010E94D3
:101780001F0C2B013C0182E00E9496026CE671E086
:101790008DE093E00E94790622E0B301A2018DE082
:1017A00093E00E947B0664E771E08DE093E00E9485
:1017B000790683E00E94960263E871E08DE093E091
:1017C0000E94790620E030E044EC52E4C301B2010B
:1017D0000E94EA0D87FDC3CF81E080930A0283E077
:1017E0000E9496026FE871E08DE093E00E94790616
:1017F00060E08DE00E948C0080E090E0892B09F48D
:10180000B3CE0E94CA01882309F4AECE0E94000024
:10181000ABCE412C512C88EC682E82E4782E5ECF22
:1018200060E08DE00E948C0083E00E9496026FE8E9
:1018300071E08DE093E00E947906DECF5058BB271F
:10184000AA270E94360C0C94B00D0E94A20D38F00D
:101850000E94A90D20F039F49F3F19F426F40C944E
:101860009F0D0EF4E095E7FB0C94990DE92F0E9473
:10187000C10D58F3BA17620773078407950720F064
:1018800079F4A6F50C94E30D0EF4E0950B2EBA2F27
:10189000A02D0B01B90190010C01CA01A001112476
:1018A000FF27591B99F0593F50F4503E68F11A1622
:1018B000F040A22F232F342F4427585FF3CF4695B3
:1018C00037952795A795F0405395C9F77EF41F16D5
:1018D000BA0B620B730B840BBAF09150A1F0FF0F9F
:1018E000BB1F661F771F881FC2F70EC0BA0F621F8B
:1018F000731F841F48F4879577956795B795F7957B
:101900009E3F08F0B0CF9395880F08F09927EE0F0F
:101910009795879508950E94750D08F481E00895C4
:101920000E94A40C0C94B00D0E94A90D58F00E94C6
:10193000A20D40F029F45F3F29F00C94990D51114C
:101940000C94E40D0C949F0D0E94C10D68F3992333
:10195000B1F3552391F3951B550BBB27AA276217AB
:101960007307840738F09F5F5F4F220F331F441FB8
:10197000AA1FA9F335D00E2E3AF0E0E832D09150EC
:101980005040E695001CCAF72BD0FE2F29D0660FD9
:10199000771F881FBB1F261737074807AB07B0E81C
:1019A00009F0BB0B802DBF01FF2793585F4F3AF022
:1019B0009E3F510578F00C94990D0C94E40D5F3F17
:1019C000E4F3983ED4F3869577956795B795F795A8
:1019D0009F5FC9F7880F911D9695879597F9089590
:1019E000E1E0660F771F881FBB1F6217730784072C
:1019F000BA0720F0621B730B840BBA0BEE1F88F73B
:101A0000E09508950E94090D6894B1110C94E40DBD
:101A100008950E94C90D88F09F5798F0B92F992713
:101A2000B751B0F0E1F0660F771F881F991F1AF0C9
:101A3000BA95C9F714C0B13091F00E94E30DB1E03E
:101A400008950C94E30D672F782F8827B85F39F03D
:101A5000B93FCCF3869577956795B395D9F73EF462
:101A600090958095709561957F4F8F4F9F4F08950A
:101A7000E89409C097FB3EF4909580957095619528
:101A80007F4F8F4F9F4F9923A9F0F92F96E9BB27DE
:101A90009395F695879577956795B795F111F8CF5A
:101AA000FAF4BB0F11F460FF1BC06F5F7F4F8F4FC5
:101AB0009F4F16C0882311F096E911C0772321F0BB
:101AC0009EE8872F762F05C0662371F096E8862F53
:101AD00070E060E02AF09A95660F771F881FDAF7AA
:101AE000880F9695879597F90895990F0008550FD7
:101AF000AA0BE0E8FEEF16161706E807F907C0F094
:101B000012161306E407F50798F0621B730B840B9B
:101B1000950B39F40A2661F0232B242B252B21F475
:101B200008950A2609F4A140A6958FEF811D811D15
:101B3000089597F99F6780E870E060E008959FEF4F
:101B400080EC089500240A94161617061806090654
:101B5000089500240A941216130614060506089523
:101B6000092E0394000C11F4882352F0BB0F40F4AB
:101B7000BF2B11F460FF04C06F5F7F4F8F4F9F4FEB
:101B8000089557FD9058440F551F59F05F3F71F06D
:101B90004795880F97FB991F61F09F3F79F08795D4
:101BA0000895121613061406551FF2CF4695F1DF5D
:101BB00008C0161617061806991FF1CF86957105ED
:101BC000610508940895E894BB2766277727CB0121
:101BD00097F908950E94750D08F48FEF08950E94FB
:101BE000020E0C94B00D0E94A20D38F00E94A90DB7
:101BF00020F0952311F00C94990D0C949F0D112455
:101C00000C94E40D0E94C10D70F3959FC1F3950FE4
:101C100050E0551F629FF001729FBB27F00DB11D70
:101C2000639FAA27F00DB11DAA1F649F6627B00D00
:101C3000A11D661F829F2227B00DA11D621F739FE9
:101C4000B00DA11D621F839FA00D611D221F749FF7
:101C50003327A00D611D231F849F600D211D822F3E
:101C6000762F6A2F11249F5750409AF0F1F0882365
:101C70004AF0EE0FFF1FBB1F661F771F881F915092
:101C80005040A9F79E3F510580F00C94990D0C949B
:101C9000E40D5F3FE4F3983ED4F38695779567951E
:101CA000B795F795E7959F5FC1F7FE2B880F911DBC
:101CB0009695879597F908950E94750D880B990B55
:101CC0000895A1E21A2EAA1BBB1BFD010DC0AA1F7D
:101CD000BB1FEE1FFF1FA217B307E407F50720F095
:101CE000A21BB30BE40BF50B661F771F881F991F10
:101CF0001A9469F760957095809590959B01AC0159
:101D0000BD01CF0108950E94940EA59F900DB49F30
:101D1000900DA49F800D911D11240895EE0FFF1FBB
:101D20000590F491E02D0994A29FB001B39FC001EA
:101D3000A39F700D811D1124911DB29F700D811DF7
:101D40001124911D089581E090E0F8940C94A80E60
:041D5000F894FFCF35
:101D540000401454004010500000000000026001D4
:101D64008D014D02BE019C01B001000000000F0571
:101D7400E2041906B804DB04C804B9040000000036
:101D84008302600119066A03CF056D02B605970543
:101D94006E616E00696E66006F766600636F7472C2
:101DA4006F6C6C657572206465206E69766561750B
:101DB400780054656D703A200020430052656D70C0
:101DC4006C3A200020250052656D706C693A200041
:101DD4000D0A0052656D706C69737361676500521A
:101DE40065736572766F697220706C65696E000048
:00000001FF
